:020000040800F2
:10000000B0480424AD020008C1850008117800083A
:10001000B9850008A9160008D99A00080000000058
:10002000000000000000000000000000218800081F
:10003000D116000800000000C9850008918800085A
:10004000CB020008CB020008CB020008CB0200085C
:10005000CB020008CB020008CB020008CB0200084C
:10006000CB020008CB020008CB020008B116000842
:10007000C1160008CB020008CB020008CB02000822
:10008000CB020008CB020008CB020008CB0200081C
:10009000CB020008CB020008CB020008CB0200080C
:1000A000CB020008CB020008CB020008CB020008FC
:1000B000CB020008CB020008CB020008CB020008EC
:1000C000CB020008CB020008CB020008CB020008DC
:1000D000CB020008CB020008CB020008C19A00083E
:1000E000CB020008CB02000800000000CB02000891
:1000F000CB020008CB020008CB020008CB020008AC
:10010000CB020008CB020008CB020008CB0200089B
:10011000CB020008CB020008CB020008CB0200088B
:10012000CB020008CB020008CB020008CB0200087B
:10013000CB020008CB020008CB020008CB0200086B
:1001400000000000000000000000000000000000AF
:10015000CB020008CB020008CB020008CB0200084B
:10016000CB020008CB020008CB020008CB0200083B
:10017000CB020008CB020008CB0200080000000000
:10018000CB020008CB020008CB020008CB0200081B
:10019000CB020008CB020008CB020008CB0200080B
:1001A000CB020008CB020008CB020008CB020008FB
:1001B000CB020008CB020008CB020008CB020008EB
:1001C000CB020008CB020008CB020008CB020008DB
:1001D000CB020008CB020008CB020008CB020008CB
:1001E000CB020008CB020008CB020008CB020008BB
:1001F000CB020008CB020008CB020008CB020008AB
:10020000CB020008CB020008CB020008CB0200089A
:10021000CB020008CB020008CB020008CB0200088A
:10022000CB020008CB020008CB020008000000004F
:10023000CB020008CB02000800000000CB0200083F
:10024000CB020008CB020008CB020008CB0200085A
:10025000CB020008CB020008CB020008CB0200084A
:10026000CB020008CB020008CB020008CB0200083A
:10027000CB020008CB020008CB02000800000000FF
:10028000CB020008CB020008CB02000800000000EF
:1002900000000000CB020008DFF80CD000F038FFAF
:1002A0000048004769A40008B04804240748804774
:1002B0000748804707480047FEE7FEE7FEE7FEE7FE
:1002C000FEE7FEE7FEE7FEE7FEE7FEE701170008B0
:1002D00059890008990200082DE9FF4FABB0054687
:1002E0002C9C00262194E40806EB040909EB040089
:1002F000039020440290204400EB040805EBC0006A
:10030000139008EB040739190A9105EBC60B006836
:1003100008900146DBF800A0504600F04AFC08991E
:100320000190504600F097FC05EBC80A099005EBD8
:10033000C900DAF800801590D0F800904146484690
:1003400000F037FC41460590484600F084FC05EB80
:10035000C7090890D9F8000004900398049905EBA8
:10036000C008D8F80070384600F023FC04991190BA
:10037000384600F070FC0A990E9005EBC100189009
:10038000006803900298039905EBC0073868049051
:1003900000F00FFC0290DDE9031000F05CFC10900F
:1003A0001199019800F057FC04901199019800F000
:1003B00000FC01900299059800F04DFC1190029903
:1003C000059800F0F6FB05900146019800F0F1FB5E
:1003D000CBF800000599019800F03DFC0146139808
:1003E0000160139840680390DBF8040003990290C1
:1003F00000F0DFFB0190DDE9020100F02CFC06902B
:10040000DAF804000390159803994068029000F010
:10041000D0FB0590DDE9020100F01DFC0790D9F842
:1004200004000390D8F804000399029000F0C1FB87
:100430000B90DDE9020100F00EFC0D901898406869
:100440000A9078680A99039000F0B3FB02900A9929
:10045000039800F000FC0C900B99019800F0FBFB56
:1004600003900B99019800F0A4FB01900299059864
:1004700000F0F1FB0B900299059800F09AFB0590B3
:100480000146019800F095FBCBF80400059901980E
:1004900000F0E1FB0146139841600B99049800F0CD
:1004A00088FBC8F800000B99049800F0D4FBC9F849
:1004B00000001199039800F0CEFBC8F804001199D0
:1004C000039800F076FBC9F804001099089800F032
:1004D000C2FBDFF85486414600F0C3FB1099814609
:1004E000089800F066FB414600F0BBFB0C99834680
:1004F000079800F0B0FB414600F0B3FB05900C9963
:10050000079800F056FB414600F0ABFB07904946C8
:10051000099800F0A0FB04904946099800F049FBB7
:10052000099059460E9800F096FB109059460E9887
:1005300000F03FFB0E90DDE9051000F08CFB03900E
:10054000DDE9051000F035FB069007990D9800F0E5
:1005500082FB079983460D9800F02BFB81460146EC
:10056000099800F026FB0146159801604946099854
:1005700000F071FB0146189801605946049800F09C
:1005800018FBCAF800005946049800F064FB386074
:100590000E99069800F05FFB0146159841600E9990
:1005A000069800F006FB01461898416010990398E0
:1005B00000F051FBCAF804001099039800F0F9FA12
:1005C000219978602C980E448642FFF48DAE082C59
:1005D0003CBF2FB0BDE8F08F002018900120209084
:1005E0002E9918982D9B08442D99189001EBC00C5A
:1005F0002D9F4200209E1118DCF8008003EBC203FF
:10060000CDF854800A18DDF8B48007EBC107111843
:1006100008EBC2081A6814920A18D7F80090104420
:10062000CDF85C90DDF8B49009EBC101D8F80090EA
:10063000CDF85890DDF8B490DCF804C009EBC202A4
:10064000CDF870C0D1F800C009EBC000CDF864C08F
:10065000D2F800C0CDF88CC0D0F800C0CDF888C06A
:100660005B6812937B681A93D8F804301393496837
:100670001B9151681D914068CDF8780006EB040885
:1006800008EB0400039020440290204400EB04098E
:1006900005EBC000249009EB040739190A91D0F842
:1006A00000A005EBC6001F905146D0F800B0584698
:1006B00000F07FFA51460190584600F0CCFA05EB65
:1006C000C80B099005EBC9002590DBF80080D0F835
:1006D00000904046494600F06CFA49460590404675
:1006E00000F0B9FA089005EBC70A0398DAF8007031
:1006F00005EBC0093946D9F80080404600F059FAA8
:1007000039461190404600F0A6FA0A990E9005EB82
:10071000C108D8F8000003900298039905EBC007C0
:100720003868049000F045FA0290DDE9031000F00B
:1007300092FA10901199019800F08DFA0490119995
:10074000019800F036FA01900299059800F083FABA
:1007500011900299059800F02CFA05900146019835
:1007600000F027FA01461F9801600599019800F0F2
:1007700072FA05902498406803901F980399406886
:10078000019000F016FA02900399019800F063FAC4
:100790000690259840680390DBF8040003990190C7
:1007A00000F007FA0A900399019800F054FA0790B4
:1007B000DAF804000390D9F804000399019000F0DE
:1007C000F8F90B900399019800F045FA0D90D8F8CC
:1007D00004000C9078680C99039000F0EAF90190FD
:1007E0000C99039800F037FA0C900B99029800F0DE
:1007F00032FA03900B99029800F0DBF9029001990C
:100800000A9800F028FA0B9001990A9800F0D1F9A3
:100810000A900B99049800F0CCF901900B99049878
:1008200000F019FA04900A99029800F0C2F9014602
:100830001F9841600A99029800F00DFA0A901199E8
:10084000039800F008FA02901199039800F0B1F9AA
:1008500003900599169800F004FA1F900A991398CE
:1008600000F0FFF911900A99169800F0FAF90B9030
:100870000599139800F0F5F90A9011991F9800F066
:1008800098F9014624980160DDE90A1000F0E3F9C7
:100890000146249841600199149800F0E2F91F90F4
:1008A0000299129800F0DDF911900299149800F065
:1008B000D8F90B900199129800F0D3F90A90119988
:1008C0001F9800F076F9C9F80000DDE90A1000F081
:1008D000C2F9C9F804000499239800F0C2F91F90E6
:1008E00003991D9800F0BDF903998146239800F003
:1008F000B8F90B9004991D9800F0B3F90A90494695
:100900001F9800F056F9CAF80000DDE90A1000F05F
:10091000A2F9CAF804001099089800F09CF98249DD
:1009200000F09FF910998146089800F042F97E493D
:1009300000F097F90C998246079800F08CF97A49F3
:1009400000F08FF902900C99079800F032F976497F
:1009500000F087F907904946099800F07CF9049067
:100960004946099800F025F9099051460E9800F083
:1009700072F9109051460E9800F01BF90E900299F2
:10098000069800F068F903900299069800F011F9B2
:10099000069007990D9800F05EF9079982460D9828
:1009A00000F007F981460146099800F002F901902C
:1009B0004946099800F04FF909905146049800F013
:1009C000F8F808905146049800F045F904900E9903
:1009D000069800F040F90E998146069800F0E9F873
:1009E00006901099039800F036F907901099039833
:1009F00000F0DFF803900199159800F032F91F908C
:100A000049461C9800F02DF982461598494600F099
:100A100028F90B9001991C9800F023F981461F9842
:100A2000514600F0C6F8CBF8000049460B9800F09C
:100A300012F9CBF804000999229800F012F91F90DE
:100A400006991E9800F00DF906998346229800F049
:100A500008F9099982461E9800F003F981461F980B
:100A6000594600F0A6F84946C8F80000504600F084
:100A7000F2F8C8F804000899199800F0F2F80799FC
:100A800083461B9800F0EDF807998146199800F00D
:100A9000E8F8089982461B9800F0E3F8804649463A
:100AA000584600F086F801462598016041465046B8
:100AB00000F0D1F80146259841600499179800F09C
:100AC000D0F8039983461A9800F0CBF80399814631
:100AD000179800F0C6F8049982461A9800F0C1F8F9
:100AE00080464946584600F064F841463860504612
:100AF00000F0B1F8219978602C980E448642FFF4FA
:100B0000BDAD2098401C209084423FF669AD2E98E0
:100B10004FF6FF71072C01EAC0002E903FF6E1ABC3
:100B20002FB0BDE8F08F0000F304353F2DE9F05FF2
:100B30000546002092469B4688460646814640244C
:100B40001BE0284641464746224600F0E1F853465E
:100B50005A46C01A914110D311461846224600F059
:100B6000C8F82D1A67EB01084F46224601200021E4
:100B700000F0BFF817EB00094E41201EA4F101045C
:100B8000DFDC484631462A464346BDE8F09FD2B2F4
:100B900001E000F8012B491EFBD270470022F6E766
:100BA00010B513460A4604461946FFF7F0FF2046E3
:100BB00010BDF0B480EA0102D40F4200B2EB410F45
:100BC00002D20246084611464A0042D0C30DDDB2A9
:100BD000C1F3C752AD1A202D35DAC1F3160141F425
:100BE000000204B15242C5F1200602FA06F12A4180
:100BF0001044B3EBD05F23D0C4B1012DA0EBC350A0
:100C000009DCF0BC4FF0004202EAC352DBB200F54F
:100C1000000000F096B8400000F1807000EBC35077
:100C2000A0F1807040EAD170490009E0490841EA2A
:100C3000C071A0EBC35000F50000400800EBC350AA
:100C4000F0BC00F075B86142012202EB4101001BCB
:100C5000F6E7F0BC704781F00041AAE780F0004061
:100C6000A7E780EA010210B502F00043400022D05D
:100C70004A001FD0010E01EB1261C0F35600C2F30F
:100C8000560240F4000042F40002A0FB02200004DF
:100C90007F39140400D0401C50EA124001D44000B7
:100CA000491EC2B20C0604EBD010401C4008802A3A
:100CB00002D003E0002010BD20F00100002900DA7E
:100CC0000020184310BD30B50B46014600202022FD
:100CD000012409E021FA02F59D4205D303FA02F549
:100CE000491B04FA02F52844151EA2F10102F1DCA9
:100CF00030BD202A04DB203A00FA02F100207047C0
:100D00009140C2F1200320FA03F319439040704749
:100D1000202A04DB203A21FA02F00021704721FA50
:100D200002F3D040C2F120029140084319467047B7
:100D30000029A8BF7047401C490008BF20F00100EF
:100D4000704710B4B0FA80FC00FA0CF050EA0104CD
:100D500004BF10BC704749B1CCF1200421FA04F45F
:100D600011FA0CF118BF012121430843A3EB0C0138
:100D7000CB1D4FEA00614FEA102042BF002010BC9B
:100D8000704700EBC35010440029A4BF10BC70474B
:100D9000401C490008BF20F0010010BC70472DE93D
:100DA000FE4F804681EA0300C00F0C46009021F000
:100DB000004123F00045B8EB0200A94105D24046AE
:100DC000214690461C460B46024623F00040104345
:100DD00047D0270DC7F30A00C3F30A510290401A07
:100DE000019040286BDAC3F3130040F4801B009895
:100DF000924620B10023D2EB030A63EB0B0B019860
:100E00005946C0F140025046FFF773FF06460D46B3
:100E100050465946019A00F08DF910EB08006141E7
:100E2000002487EA115284EAE7731A4340D0009AFB
:100E300062B3019A012A4FEA075215DC001B61EBED
:100E400002014FF0004202EA0752CDE90042001CC5
:100E500041F5801132462B4600F08DF903B0BDE814
:100E6000F08F40462146F9E7001B61EB0201001CB0
:100E700041F5801300185B412018A2F5001747EBDD
:100E8000030140EAD570B6196D4111E06D084FEAD3
:100E9000360645EAC0754FEA0752001B61EB0201B6
:100EA000001C41F5801149084FEA300000195141FA
:100EB00032462B4603B0BDE8F04F00F04DB9009824
:100EC000012240000023D0EB020263EBE0730098A4
:100ED00021464FEAE074B8EB000061EB0401E9E75A
:100EE00083F000435BE781F0004158E72DE9FE4FB6
:100EF00081EA030404F0004421F0004100944FF023
:100F0000000B23F0004350EA01045ED052EA0304D0
:100F10005BD0C3F30A54C1F30A552C44A4F2F33452
:100F20000194A0FB0254C1F3130141F48011C3F3F7
:100F3000130343F4801301FB024400FB034E840AB5
:100F4000970A44EA815447EA8357A4FB076802954D
:100F50008D0A05FB07854FEA932C04FB0C542705EB
:100F6000029D4FEA065847EA1637B5EB08056EEBC7
:100F7000070C870E920E47EA811742EA8312A7FBFD
:100F80000201B6EB0B0164EB00042B0D43EA0C33BA
:100F90005E1844EB1C50DA465146E7FB0201C5F3EC
:100FA00013044FEA0B3343EA14534FEA0432019C13
:100FB00043EA0603A4F10C040294009CCDE900B4BA
:100FC00000F0D9F803B0BDE8F08F00200146F9E742
:100FD0002DE9F04D81EA030404F0004B21F00045B7
:100FE00014464FF0000A23F0004150EA050220D0D9
:100FF00054EA01021DD0C5F30A570246C5F3130394
:10100000C1F31300C1F30A5640F4801543F4801372
:10101000A7EB0608101BD64608F2FD3873EB050057
:1010200002D308F1010801E092185B41B8F1000F0A
:1010300003DA00200146BDE8F08D00204FF4801156
:10104000064684460EE0171B73EB050705D3121BFB
:1010500063EB050306434CEA010C49084FEA3000F4
:1010600092185B4150EA0107EDD152EA030012D019
:1010700082EA040083EA0501084305D0101BAB4156
:1010800006D20122002306E000224FF0004302E0D6
:101090006FF0010253101AEB06004CEB085110EBF5
:1010A0000A0041EB0B01BDE8F04D00F055B8C1F36B
:1010B0000A52C1F3130140F2FF3341F480119A4206
:1010C00002DA00200146704740F233439A42A2F20E
:1010D000334202DC5242FFF71BBEFFF70ABE00009C
:1010E00030B5041E71F1000404DB4FF000444042AF
:1010F00064EB0101141E73F1000405DB1C464FF084
:101100000043524263EB0403994208BF904230BD52
:10111000064C074D06E0E06840F0010394E8070044
:1011200098471034AC42F6D3FFF7BAF85499020846
:1011300074990208202A06DBCB17203A41FA02F004
:1011400043EAE07306E041FA02F3D040C2F1200224
:10115000914008431946704710B5141E73F10004FE
:1011600008DA401C41F1000192185B411A4301D199
:1011700020F0010010BD2DE9F04D92469B4611B1C3
:10118000B1FA81F202E0B0FA80F220329046FFF725
:10119000B0FD04460F4640EA0A0041EA0B015346FF
:1011A0005A46084313D0114653EA010019D0C8F13A
:1011B00040025046FFF7ACFD05460E4650465946E4
:1011C0004246FFF796FD084305D0012004E0204683
:1011D0003946BDE8F08D0020054346EAE0762C4311
:1011E00037430A986305E40AA0EB08000022FD0AD1
:1011F00044EA47540A3002D500200146E9E70105D8
:1012000010196941DDE9084500196941BDE8F04D53
:10121000A2E730B58C1810F8012B12F00F0301D1A2
:1012200010F8013B120906D110F8012B03E010F869
:10123000015B01F8015B5B1EF9D101E001F8013BA4
:10124000521EFBD1A142E6D3002030BD00000000B9
:1012500044F20C02C0F30521C2F204421170507036
:1012600007F0F2BB000000009FED0D0B01EE100A2D
:1012700044F20C01B8EE411BC2F2044121EE000B16
:10128000BCEEC00B10EE100A020AC8718A71020C83
:10129000000E4A71087107F0D7BB00BF00BF00BF46
:1012A00095D626E80B2E1140B0B5044642F2001147
:1012B0002068C4F2020140F48070884204D142F2F6
:1012C0000830C4F2020003E046F20830C5F602001E
:1012D000006810F4403F10D004F0AEFB0546606893
:1012E000B0F5803F05D0B0F5403F22D0B0F5003FCB
:1012F00020D1000CB5FBF0F51CE04FF400200021DC
:1013000003F012FB05466068A0F580214FEAB14169
:101310000A290FD8DFE801F00606060606064B4D3F
:101320004F51530047F6FE7101EA5040B5FBF0F50E
:1013300000E0AD0802F058FF216841F2030290423C
:101340000CD8886842F60053C0F231139D4220F455
:10135000807288BF40F480728A60B0BD4BF6214035
:10136000C0F2BE0085429FBF51F8080F20F44070C4
:101370000860B0BD47F64100C0F27D10854206D836
:1013800051F8080F012262F309200860B0BD51F83E
:10139000082F0223104663F309204FF28203C0F2A4
:1013A000FA239D4228BF42F440700860B0BD2D0969
:1013B000C0E76D09BEE7AD09BCE7ED09BAE72D0A44
:1013C000B8E700000000000070B50446206882689D
:1013D0008368DB0843EA9202D2074ED0C3684FF617
:1013E000C072C7F6FF7213F0007F05D0637D012B3A
:1013F00004BF237D012B04D0022917D10221082626
:1014000024E0016811F0400F0DD14DF600434FF07C
:10141000FF31C0F20C0300BF013199423ED2066891
:1014200016F0400FF8D0402101600121836813F0CD
:10143000040F08D0836813F0020F01BF83681340C4
:1014400043F010038360042601290FD0836813F052
:10145000080F08D0836813F0020F01BF83681A4099
:1014600042F020028260032908BF0C2602F0C4FE6D
:10147000054620688068304207D1002070BD00BF5B
:101480008068304204BF002070BD02F0B5FE411BF1
:1014900020680529F4D981683142F1D0606D40F0AF
:1014A00010006065A06D40F00100A065012070BDD6
:1014B0000146886B436D426D13F0500F07D0D20682
:1014C00048BF00F049BCC06CC26C0846104742F4EB
:1014D0000071416501680B68CA6813F0080F0ED1EE
:1014E000910723D1416D21F480714165416D11F463
:1014F000805F02BF416D41F00101416516E012F4C9
:10150000406F13D1C96811F4005F0FD1416D21F410
:1015100080714165416D11F4805F18BF00F000BC1F
:10152000416D41F00101416500F0FABB00F0F8BBEC
:10153000806B416D41F040014165816D41F00401D6
:10154000816500F009BC0000806B00F001BC000068
:10155000B0B50446002021688B688A6813F0020F3A
:1015600037D112F0010208BFB0BD886800F00D004D
:1015700001282FD188684FF6C072C7F6FF7210405D
:1015800040F0020088600320086002F035FE054646
:101590002068806810F0010F04BF0020B0BD05E096
:1015A000806810F0010F04BF0020B0BD02F024FEDF
:1015B000411B20680229F3D9816811F0010FEFD097
:1015C000606D40F010006065A06D40F00100A06506
:1015D0000120B0BD606D40F010006065A06D40F06E
:1015E0000100A0650120B0BDF0B581B004462068BF
:1015F000816811F0010F53D181684FF6C077C7F6AB
:10160000FF7707F17F0211420AD0606D40F01000B1
:101610006065A06D40F00100A065012001B0F0BD43
:101620008168394041F00101816002F0E5FD054625
:10163000206842F2000146F20036C4F20201C5F60B
:10164000020601F5807201F54073904208BF1E4604
:101650008842014608BF1E469042B36804BF42F26A
:101660000001C4F2020113F01F0F18BF814217D10D
:10167000016811F0010F13D1816811F0010F01BF52
:101680008168394041F00101816002F0B5FD411BE4
:1016900020680329ECD3016811F0010FE8D1B4E709
:1016A000002001B0F0BD0000FEE7000000000000D7
:1016B00044F29020C2F2044001F062B90000000040
:1016C00044F20830C2F2044001F05AB900000000B0
:1016D0007047000000000000B0B505A406A5EFF3B8
:1016E000108072B62046294606F08AF8FAE700BF55
:1016F00074302E74787400004552524F520000002E
:1017000044F60C00C5F60200016841F002010160D8
:1017100050F8081C11F4005FFAD070470000000078
:101720002DE9F041044644F2CC30C2F2044004F00A
:101730006BFF44F22C20C2F2044000F02DFD40F279
:10174000000848F20006C2F20048C2F200464046D5
:10175000314608F051FF48F200073046C2F2014717
:10176000394608F03DFDB7EE000A384608F07CFF28
:1017700044F220053846C2F20445294608F0C0FD6F
:101780002888B1EE040A4FF4804156F8200001EE9B
:10179000100A404621EE000A84ED000AFFF7FEF928
:1017A000BDE8F0810000000090F85020012A02BF3F
:1017B0000221C8B27047F0B582B0012280F85020F3
:1017C00000220192009242F208320468C4F202023E
:1017D000A2F542739C4233D14FF6006C4FF6005392
:1017E000CFF6FF7CCFF6FF7352F80C60D5582E432E
:1017F000760725D4D1F800E0156825F4404646F276
:101800000805BEF1000FC5F6020526D04F6844F466
:1018100080743E43166042F20016C4F20206B442DF
:1018200031D1D35852F80C703B43DB072ED11368EB
:10183000896840F61F77BB4343EA0E0319431FE054
:10184000416D41F0200141650121002280F85020C6
:1018500002B0BDE8F040C8B2704742F2001744F44D
:1018600080711660C4F20207B94211D1D15852F802
:101870000C301943C9070ED1116840F61F73994304
:1018800011600021E1E72B68DB07D0D00021DCE705
:101890002968C907F0D00021D7E700000000000048
:1018A0002DE9F04F81B00022009290F85020012ADB
:1018B00001D1022195E1012280F85020026893684D
:1018C00013F0040F40F085810B684FF6FF7CC0F2E7
:1018D0000F0CB3F1FF3F10DD93FAA3F713EA0C0FDF
:1018E0004FF00106B7FA87F708BF9F0E07F01F07F2
:1018F00006FA07F7D6693743D7614F689B0E1F2555
:1019000003F01F0307F01F06C7F3012702EB870749
:10191000B540B3403C6B24EA05052B433B63936819
:101920009768FF0847EA9303DB0740F081800B6864
:101930008F680725C3F30456C3F3406302EB8303A8
:10194000B540B7405C6924EA05052F435F6141F269
:101950000003C5F600431E684B69D76806F0704661
:10196000B6F1805F02D107F01C0606E0FF064FF0DB
:10197000100758BF1C27D6683E400F69042F27D197
:10198000176E0E6807F0F847B306B7EB866F02BF15
:10199000176E27F000471766576E07F0F8479F420B
:1019A00002BF576E27F000475766976E07F0F8475B
:1019B0009F4202BF976E27F000479766D76E07F0E9
:1019C000F8479F4202BFD36E23F00043D3662FE057
:1019D0004FF6FE75C7F6FF7505EA5606B3400E686A
:1019E00006F0F846334302F1600656F8275005F03A
:1019F00000452B4346F827300F694B7E56F8275099
:101A0000012B25F0004508BF45F0004546F827505A
:101A100000270B7E012B08BF4FF400670B6903F012
:101A20001F0307FA03F3176927F4F0473B431361D9
:101A3000936813F0010F64D10B68C968D2F8C050E5
:101A400001F0180603EA0C072CFA06F6374043F0BB
:101A5000704646F07F6686EA0C062E403743002625
:101A6000C4F25276C2F8C07006F52D07B94271D1A2
:101A700042F20015402140F2800A40F2001840F284
:101A8000002740F6000B41F2000442F2000940F248
:101A9000000C40F2000EC4F20205C1F62011C1F69E
:101AA000505AC2F28018C2F2B057C2F6306BC3F27D
:101AB0006024C3F29069C4F6843CC4F6B87EAA429E
:101AC00021D042F20005C4F20205AA422ED11F2500
:101AD000C1F2F045AB4240F3AB8040F2FF71C2F679
:101AE00030618B4240F394805B4521461FD0A34276
:101AF00049461CD00021C4F221318B42314616D018
:101B0000F7E000216AE01F25C1F2F045AB4279DC25
:101B10000724C0F69044A34200F39B800224C0F245
:101B20003044A34240F08E80012100E0002143F6C2
:101B3000C13691FAA1F7C0F20A06B7FA87F7314227
:101B400008BF8F0E07F01F01012707FA01F1D769BF
:101B50003943D161B3F1FF3F01DD00213EE042F2A4
:101B6000000746F2083C42F20015C4F20207C5F62F
:101B7000020CC4F2020507F5807107F540768A422F
:101B8000314618BFACF10801BA4208BF314642F4F1
:101B900080768968AE4214D1BE68D7F808713743A1
:101BA000FF0716D101F0E0760F021ED40027CCF615
:101BB0008437BB4219D1ACF542718A4275D00021FD
:101BC0000CE04FF60057CFF6FF775CF80770FF0781
:101BD000E8D0416D41F0200141650121002280F8EB
:101BE0005020C8B201B0BDE8F08FCF0140D400272B
:101BF000CCF25277BB423BD1ACF542718A427ED0E7
:101C00000021EBE740F2FF71C2F630618B4244DC09
:101C10002021C1F2F0418B4239463FF488AF40F2B7
:101C20000041C2F600218B4259463FF480AF60E08C
:101C30000724C0F69044A3420BDC0224C0F23044D7
:101C4000A34267D00424C0F66004A3423FF46FAF00
:101C50004FE00821C0F690418B4251463FF467AFF8
:101C60001021C1F2C0018B4241463FF460AF40E019
:101C700049024FF00001B1D40027CCF6B877BB423F
:101C800004BFACF542739A42A8D1DCF8001021F0F1
:101C9000E071314341F4800138E05B4521463FF477
:101CA00046AFA34225D1494641E7DCF8001042F691
:101CB0006352C0F23E5221F0E071314341F4000121
:101CC000CCF8001044F20401C2F204410968890909
:101CD000A1FB02129109022202EB4101009100993D
:101CE000D1B10099013900910021009A002AF8D160
:101CF00074E7634518BF4FF0000E714617E7DCF834
:101D0000001021F0E071314341F08071CCF80010F7
:101D1000002163E701210AE700215FE700000000DE
:101D2000006842F20001C4F20201884218BF704705
:101D300080B544F2CC30C2F2044004F065FC44F2B9
:101D400028200121C2F204400170BDE880407047A4
:101D50007047000000000000704700000000000015
:101D600070B582B004460020002C019044D0606D14
:101D700030B9204600F008F90020A06584F8500032
:101D800020684FF6C071C5F6FF71826812F0005FDF
:101D90001EBF82680A408260826812F0805F1DD197
:101DA000826801F18051114042F6635241F0805146
:101DB000C0F23E52816044F20401C2F2044109685B
:101DC0008909A1FB0212012101EB921102E000BF7F
:101DD00001990139019101990029F9D1816811F026
:101DE000805F0BD1616D012641F010016165A16D2D
:101DF00041F00101A16502E00126B9E000268168F9
:101E0000C1F38001626D02F010021143616D03D0D5
:101E100041F010000126AAE021F4817141F0020195
:101E20006165816811F0010F28D142F2001242F27F
:101E3000000146F2080C40F48073C4F20202C4F2BE
:101E40000201C5F6020C934240F095808A68D1F8F1
:101E500008311343DA0711D101F5807201F540739F
:101E600090421A4618BF0CF53E72884208BF1A46C7
:101E70006068916821F47C110843906002F0B4F925
:101E8000A168226B637D41F203050A43102942EAEF
:101E90004332237F42EA0342114608BF41F00C015E
:101EA000A84298BF1146012B06D1206A0022CFF626
:101EB000FE7202EB40400143606A4CF20303CFF62E
:101EC000F07300281FBF00F478700843A16A014333
:101ED0002068C2681A401143C16081688268D208D4
:101EE00042EA9101C90734D1217DE26A44F2030339
:101EF00042EA8131C2689A431143C16094F83820A4
:101F00000169012A18D104F13C0E00259EE80C401D
:101F1000CFF6FF75D4F848C005EB02424FF61E0518
:101F2000CFF6004529401943114341EA0E0141EA29
:101F30000C0141F0010101E021F0010101610169A1
:101F4000626B21F07041114301612046FFF7ACF94B
:101F50002068E268016B21F00F01012A02BFA2692B
:101F6000013A114301630121606D61F30100606575
:101F7000304602B070BDDCF80030DA073FF46CAFD9
:101F80007CE700000000000070B5B8B004460025F2
:101F900002A8C021C0263795CDE93555CDE9335586
:101FA000FEF7FCFD206842F20001C4F20201884203
:101FB00001D038B070BD4FF4002003950C21029081
:101FC00002200490CDE90510CDE9070020200996F4
:101FD000CDE90A0502A82B9502F0EAFE002818BFF9
:101FE000FFF77AFB44F2D8400026C5F602000168EC
:101FF00041F020010160016801F020010191019987
:10200000816841F00101816033A9806800F001001E
:1020100001900198402033900320349000203596A1
:10202000C5F6020001F0F4FF44F2902510200921CA
:102030004FF480624FF400634FF4005CC2F2044539
:10204000C4F2020085E843002846C5E90362C5E9F9
:10205000053CC5E907666E6201F08AF8002818BFE2
:10206000FFF73AFBE564AC6338B070BD00000000D8
:102070002DE9F04381B00446894642F200079046BC
:1020800046F200322168C4F20207C5F6020207F5E3
:10209000807507F54070A94208BF0246B94208BFE3
:1020A00002469068896811F0040F03D194F850102B
:1020B000012903D1022001B0BDE8F08300F01F0622
:1020C0000120092E84F850005DD8B04040F2212153
:1020D000084258D02046FFF787FA00281FBF00218A
:1020E00084F8501001B0BDE8F083606D40F60171D6
:1020F000884340F4807060652168A94218BF0F468C
:10210000002E18BF8F4203D1606D20F480106065EF
:10211000606D41F2B14341F249570022C0F600031D
:10212000C0F6000710F4805F4FF000001CBFA06DE8
:1021300020F00600A065E06CC0E90F3741F2315392
:10214000C0F60003C3641C230B6084F850204A6867
:1021500042F010024A60E26ACB6823F003031A439C
:102160004346CA6040314A4601F006FC21684FF6FA
:10217000C073C7F6FF738A681A4042F004028A608F
:1021800001B0BDE8F083002084F85000012001B0C8
:10219000BDE8F08300000000B0B5044694F850009C
:1021A000012804BF0220B0BD0120032184F85000A3
:1021B0002046FFF709F938BB2068C16821F0030108
:1021C000C160E06C90F83510022908D100F020F8C9
:1021D000054625B1606D40F04000606500E00025D7
:1021E0002068416821F0100141602046FFF7B0F9F6
:1021F000002D18BF284638B9606D41F2011188439F
:1022000040F0010060650020002184F85010B0BD4E
:102210002DE9F04381B0044601F0EEFF0546002CA5
:1022200002BF012001B0BDE8F08394F83500022818
:102230001ED1276840F2B70940F2B848C4F202093B
:10224000C4F202084F4517DD40F25740C4F20200C5
:10225000874222DC40F22740C4F20200874237DC8A
:10226000B820C4F2020087424FD040F2104047E04D
:102270008020606501202DE25720C4F202008742D1
:102280001ADD8720C4F2020087422ADC5820C4F2FB
:102290000200874239D0702032E040F28740C4F219
:1022A0000200874224DC40F25840C4F20200874218
:1022B0002BD040F2704023E01020C4F2020087428D
:1022C0001EBF2820C4F2020087421ED0402017E023
:1022D00040F22840C4F20200874216D040F240404B
:1022E0000EE08820C4F2020087420ED0A02007E052
:1022F00040F2A040C4F20200874206D040F288407B
:10230000C4F20200874240F05381386820F01E007A
:102310003946386051F8140F20F0800040F26F46C3
:102320000860C4F20206B74216DC9F20C4F2020025
:1023300087422CDC5720C4F2020087424FDC102079
:10234000C4F2020087421EBF2820C4F20200874266
:1023500000F08180402067E045F22F40C5F6020082
:10236000874227DC40F2B740C4F20200874242DCD9
:1023700040F27040C4F2020087421EBF40F2884023
:10238000C4F20200874266D040F2A0404CE040F226
:102390002740C4F20200874238DCA020C4F20200C9
:1023A00087421EBFB820C4F20200874253D040F2D9
:1023B000104039E045F26B40C5F60200874238DC38
:1023C00045F23040C5F6020087421EBF45F2444048
:1023D000C5F6020087423ED045F2584037E058200B
:1023E000C4F2020087421EBF7020C4F2020087427E
:1023F00031D0882018E047451EBF45F20840C5F699
:102400000200874227D045F21C4020E040F22840DD
:10241000C4F2020087421EBF40F24040C4F20200F4
:10242000874218D040F25840C4F20200874212D0CE
:1024300016E045F26C40C5F6020087421EBF45F229
:102440009440C5F60200874205D045F28040C5F6AB
:102450000200874204D1206E016821F4807101607E
:10246000386820F001003860386810F0010F0BD098
:1024700001F0C2FE401B0628F6D320206065032031
:1024800084F83500012025E12068484513DD40F23D
:102490005741C4F2020188421EDC40F22741C4F2D7
:1024A0000201884233DCB821C4F2020188424AD0DA
:1024B00040F2104143E05721C4F2020188421ADD84
:1024C0008721C4F2020188422ADC5821C4F20201A9
:1024D000884238D0702132E040F28741C4F20201D4
:1024E000884224DC40F25841C4F2020188422AD0DA
:1024F00040F2704123E01021C4F2020188421EBF65
:102500002821C4F2020188421DD0402117E040F288
:102510002841C4F20201884215D040F240410EE049
:102520008821C4F2020188420DD0A02107E040F2C8
:10253000A041C4F20201884205D040F28841C4F2B1
:102540000201884257D1D4E9161202F01F023F233C
:1025500003FA02F28A60B04259DC9F21C4F2020100
:10256000884211DC5721C4F20201884228DC102184
:10257000C4F2020188421EBF2821C4F2020188422F
:1025800000F0968040215CE040F22741C4F2020155
:10259000884221DCA021C4F2020188421EBFB8217A
:1025A000C4F20201884200F0838040F2104148E00A
:1025B000386847453FF4AAAE20F00E003946ADE634
:1025C0005821C4F2020188421EBF7021C4F20201E8
:1025D00088426DD0882134E040F22841C4F20201E3
:1025E00088421EBF40F24041C4F2020188425FD0DF
:1025F00040F2584125E0D4E91612404502F01F028E
:10260000A5D0012303FA02F24A60B042A5DD45F2EB
:102610002F41C5F60201884218DC40F2B741C4F2EE
:102620000201884227DC40F27041C4F20201884274
:102630001EBF40F28841C4F20201884238D040F205
:10264000A041C4F20201884232D03FE045F26B4122
:10265000C5F60201884219DC45F23041C5F6020197
:1026600088421EBF45F24441C5F6020188421FD090
:1026700045F2584118E040451EBF45F20841C5F6F5
:102680000201884214D045F21C410DE045F26C4134
:10269000C5F6020188421EBF45F29441C5F602010B
:1026A000884205D045F28041C5F6020188420DD12D
:1026B000D4E919014160E06E00281FBF016821F4D0
:1026C00080710160D4E91C0118BF4160012084F8C9
:1026D00035000020002184F8341001B0BDE8F083FB
:1026E000E8B190F83510022917D1016840F20F4285
:1026F000C4F20202914215DC6F23C4F20203994234
:1027000025DC3F23C4F2020399423BDC1023C4F2D0
:102710000203994259D0282353E0802141650121C9
:102720000846704740F26F43C4F2020399421ADC34
:1027300040F23F43C4F2020399422ADC40F21043C4
:10274000C4F20203994240D040F2284339E09F236B
:10275000C4F20203994225DC7023C4F202039942B9
:1027600033D088232DE040F29F43C4F20203994204
:102770001FDC40F27043C4F20203994225D040F2BC
:1027800088431EE04023C4F2020399421DD058231F
:1027900017E040F24043C4F20203994215D040F2E0
:1027A00058430EE0A023C4F2020399420DD0B8238F
:1027B00007E040F2B843C4F20203994205D040F268
:1027C000A043C4F2020399426ED10423914280F8DF
:1027D000353010DC6F20C4F20200814220DC3F2043
:1027E000C4F20200814236DC1020C4F202008142B1
:1027F00053D028204EE040F26F40C4F202008142E4
:102800001ADC40F23F40C4F2020081422ADC40F26E
:102810001040C4F2020081423FD040F2284039E02B
:102820009F20C4F20200814225DC7020C4F2020025
:10283000814232D088202DE040F29F40C4F2020055
:1028400081421FDC40F27040C4F20200814224D079
:1028500040F288401EE04020C4F2020081421CD0B9
:10286000582017E040F24040C4F20200814214D0E8
:1028700040F258400EE0A020C4F2020081420CD089
:10288000B82007E040F2B840C4F20200814204D010
:1028900040F2A040C4F202008142086820F001002A
:1028A00008600021084670470A6822F00E020A609C
:1028B0000A6822F001020A6045F25742C5F6020298
:1028C00091420EDC45F22F42C5F60202914217DC1E
:1028D00045F20842C5F60202914226D045F21C425A
:1028E0001FE045F27F42C5F60202914211DC45F23B
:1028F0005842C5F60202914217D045F26C4210E0F0
:1029000045F23042C5F6020291420ED045F24442F1
:1029100007E045F29442C5F60202914205D045F225
:102920008042C5F6020291421AD1016E01230A6863
:1029300022F480720A60D0E9161202F01F0203FA34
:1029400002F24A60D0E919124A60C16E00291FBF25
:102950000A6822F480720A60D0E91C1218BF4A602B
:10296000012180F83510002180F83410026D22B169
:1029700080B590470021BDE88040084670470000C0
:102980002DE9F04381B00446002048F2B51140F231
:102990006F49009044F20400C1F64E31C4F20209BE
:1029A000C2F20440A56D00682E68A0FB01082968EA
:1029B00027684F4515DC9F20C4F2020087422BDCBC
:1029C0005720C4F2020087424EDC1020C4F20200FD
:1029D00087421EBF2820C4F20200874272D04020E6
:1029E0006BE045F22F40C5F60200874227DC40F23B
:1029F000B740C4F20200874242DC40F27040C4F2A9
:102A0000020087421EBF40F28840C4F202008742A3
:102A100058D040F2A04050E040F22740C4F20200FB
:102A200087423CDCA020C4F2020087421EBFB820CF
:102A3000C4F20200874245D040F210403DE045F22A
:102A40006B40C5F60200874271DC45F23040C5F6A6
:102A5000020087421EBF45F24440C5F6020087428D
:102A600078D045F2584070E05820C4F20200874206
:102A70001EBF7020C4F20200874223D088201CE0D1
:102A800040F2B840C4F2020087421BD045F2084031
:102A9000C5F6020087425DD045F21C4055E040F289
:102AA0002840C4F2020087421EBF40F24040C4F2F8
:102AB0000200874206D040F25840C4F2020087422A
:102AC00040F04783E06D00F01F01082000FA01F29A
:102AD000324200F0EA8040F20F40C4F20200874226
:102AE00012DC6F20C4F20200874269DC3F20C4F28E
:102AF0000200874200F3A8801020C4F2020087423F
:102B000000F0C6802820BEE04F4565DC40F23F4023
:102B1000C4F20200874200F39E8040F21040C4F2EB
:102B20000200874200F0B48040F22840ABE045F25A
:102B30006C40C5F6020087421EBF45F28040C5F6D4
:102B40000200874206D045F29440C5F60200874253
:102B500040F0FF823A68E06D00F01F0312F0040FAE
:102B60001EBF0420984010EA01061BD1900742D5F1
:102B70000220984010EA01063DD06860100400F180
:102B8000E282900609D4386820F00A0038600120FB
:102B900084F83500002084F83400E16B002940F00F
:102BA000CD82D6E26860100446D490065EBF3868D5
:102BB00020F004003860216C002940F0BF82C8E298
:102BC0009F20C4F2020087424EDC7020C4F2020053
:102BD00087425DD0882056E040F29F40C4F2020058
:102BE000874248DC40F27040C4F2020087424FD076
:102BF00040F2884047E0100740F1AB82082098403F
:102C0000084000F0A6823868012120F00E003860EC
:102C1000E06D00F01F0001FA00F0686000206165BF
:102C200084F8351084F83400E16C00291CBF20467C
:102C3000884701B0BDE8F083D0034CBF216CA16C84
:102C4000002940F07B8284E24020C4F202008742E7
:102C50001ED0582017E040F24040C4F202008742E4
:102C600016D040F258400EE0A020C4F20200874285
:102C70000ED0B82007E040F2B840C4F2020087420C
:102C800006D040F2A040C4F20200874240F06482C5
:102C900004203B68034208D0386820F00400386004
:102CA000AA60606D40F001006065012000FA01F249
:102CB000324271D040F20F40C4F20200874210DC71
:102CC0006F20C4F2020087421CDC3F20C4F20200E5
:102CD000874232DC1020C4F20200874251D0282003
:102CE0004AE04F451ADC40F23F40C4F202008742FE
:102CF0002ADC40F21040C4F20200874241D040F288
:102D0000284039E09F20C4F20200874225DC702071
:102D1000C4F20200874234D088202DE040F29F4068
:102D2000C4F2020087421FDC40F27040C4F202008D
:102D3000874226D040F288401EE04020C4F20200C4
:102D400087421ED0582017E040F24040C4F20200F3
:102D5000874216D040F258400EE0A020C4F2020094
:102D600087420ED0B82007E040F2B840C4F202001B
:102D7000874206D040F2A040C4F20200874240F0F1
:102D8000ED8107F114008023006818421FBFAA607C
:102D9000606D40F002006065042000FA01F23242EA
:102DA0006FD040F20F40C4F20200874210DC6F2067
:102DB000C4F2020087421CDC3F20C4F202008742BA
:102DC00032DC1020C4F20200874251D028204AE0B1
:102DD0004F451ADC40F23F40C4F2020087422ADC31
:102DE00040F21040C4F20200874241D040F2284035
:102DF00039E09F20C4F20200874225DC7020C4F233
:102E00000200874234D088202DE040F29F40C4F277
:102E1000020087421FDC40F27040C4F20200874289
:102E200026D040F288401EE04020C4F202008742D3
:102E30001ED0582017E040F24040C4F20200874202
:102E400016D040F258400EE0A020C4F202008742A3
:102E50000ED0B82007E040F2B840C4F2020087422A
:102E600006D040F2A040C4F20200874240F07981CF
:102E700002203B6803421FBFAA60606D40F004005F
:102E80006065102000FA01F1314200F0818040F2CB
:102E90000F40C4F20200874210DC6F20C4F202002F
:102EA00087421CDC3F20C4F20200874232DC102043
:102EB000C4F20200874251D028204AE04F451ADC74
:102EC00040F23F40C4F2020087422ADC40F2104048
:102ED000C4F20200874241D040F2284039E09F20EE
:102EE000C4F20200874225DC7020C4F2020087424F
:102EF00034D088202DE040F29F40C4F20200874287
:102F00001FDC40F27040C4F20200874226D040F23B
:102F100088401EE04020C4F2020087421ED05820A4
:102F200017E040F24040C4F20200874216D040F25F
:102F300058400EE0A020C4F2020087420ED0B82014
:102F400007E040F2B840C4F20200874206D040F2E7
:102F5000A040C4F20200874240F0058108203A6890
:102F6000024215D0A9603968386811F4802F06D163
:102F7000C0055EBF386820F00800386001E000033B
:102F800001D4216C00E0A16C00291CBF20468847B9
:102F9000E06D00F01F01202000FA01F2324200F043
:102FA000A780206840F20F471023C4F20207B842FE
:102FB00010DC6F27C4F20207B8421CDC3F27C4F2C2
:102FC0000207B84232DC1027C4F20207B84251D0DF
:102FD00028274AE048451ADC40F23F47C4F202077E
:102FE000B8422ADC40F21047C4F20207B84241D08E
:102FF00040F2284739E09F27C4F20207B84225DC97
:103000007027C4F20207B84234D088272DE040F27E
:103010009F47C4F20207B8421FDC40F27047C4F277
:103020000207B84226D040F288471EE04027C4F28B
:103030000207B8421ED0582717E040F24047C4F2BA
:103040000207B84216D040F258470EE0A027C4F25B
:103050000207B8420ED0B82707E040F2A047C4F2FA
:103060000207B84206D040F2B847C4F20207B8429D
:1030700018BF022307681F423AD0AA6094F835307F
:103080000268042B1BD122F016020260426922F072
:1030900080024261226C0AB9A26C1AB1026822F065
:1030A000080202603F208840A860012084F83500B3
:1030B000002084F83400216D00293FD149E00168E7
:1030C00052030CD4C9050ED4016821F0100101602F
:1030D000012084F83500002084F8340003E0080360
:1030E00001D4616C00E0E16B00291CBF20468847D9
:1030F000606D70B3606D10F0010F1DD004204FEAB9
:10310000982184F835002068026822F001020260EC
:10311000009A01328A42009203D8026812F0010F2D
:10312000F6D10068012100F0010041EA400084F876
:103130003500002084F83400E16C51B12046884706
:1031400001B0BDE8F083D00354BF616CE16B00298E
:10315000F4D101B0BDE8F08308209AE50023384699
:1031600012E6002085E60420F9E6000000000000D9
:103170002DE9F047044601F03FF80546002C04BF56
:103180000120BDE8F087206840F26F48C4F20208D1
:10319000404515DC9F21C4F2020188422BDC5721F7
:1031A000C4F20201884250DC1021C4F202018842BC
:1031B0001EBF2821C4F20201884274D040216DE074
:1031C00045F22F41C5F60201884227DC40F2B741A3
:1031D000C4F20201884244DC40F27041C4F20201B0
:1031E00088421EBF40F28841C4F2020188425AD090
:1031F00040F2A04152E040F22741C4F2020188426D
:103200003EDCA021C4F2020188421EBFB821C4F2F4
:103210000201884247D040F210413FE045F26B4145
:10322000C5F60201884200F38F8045F23041C5F6B1
:10323000020188421EBF45F24441C5F602018842A0
:1032400000F0958045F258418CE05821C4F202010B
:1032500088421EBF7021C4F20201884223D0882117
:103260001CE040F2B841C4F2020188421BD045F292
:103270000841C5F60201884279D045F21C4171E04F
:1032800040F22841C4F2020188421EBF40F2404190
:10329000C4F20201884206D040F25841C4F2020151
:1032A000884240F0968140F20F490221C4F202099F
:1032B00084F835100021484584F8341012DC6F2161
:1032C000C4F20201884220DC3F21C4F2020188429C
:1032D00000F3EB801021C4F20201884200F0078164
:1032E000282101E140451EDC40F23F41C4F20201C9
:1032F000884200F3E18040F21041C4F202018842AA
:1033000000F0F58040F22841EEE09F21C4F2020176
:10331000884200F3DA807021C4F20201884200F092
:10332000E6808821E0E040F29F41C4F20201884239
:1033300000F3D28040F27041C4F20201884200F0F2
:10334000D68040F28841CFE045F26C41C5F60201DB
:1033500088421EBF45F28041C5F60201884206D070
:1033600045F29441C5F60201884240F032810221C3
:1033700004F1180E84F83510002184F83410026826
:10338000D4E902A3D4E904769EE82050BAF1800F74
:103390006FF3101208BF4FF48041BAF1400F42EAB8
:1033A000D30220F0FF0308BF102111434CF6CD4299
:1033B00041EAD701CCF6CC4241EAD60141EAD50137
:1033C00041EADC0141EA1E1101604AF6F831CAF215
:1033D000FD710144A1FB02124FF6FC71C3F6FF71AF
:1033E00001EA9201C4E916311C2101EA920101228D
:1033F00002FA01F15960404540F3958145F22F41B1
:10340000C5F60201884215DC40F2B741C4F2020160
:10341000884225DC40F27041C4F2020188421EBF9E
:1034200040F28841C4F20201884200F0C48140F2B7
:10343000A041BBE145F26B41C5F6020188421FDCA9
:1034400045F23041C5F6020188421EBF45F24441B3
:10345000C5F60201884200F0AE8145F258411EE0F7
:1034600040F2B841C4F2020188421EBF45F2084151
:10347000C5F60201884200F09E8145F21C410EE033
:1034800045F26C41C5F6020188421EBF45F29441E7
:10349000C5F60201884200F08E8145F28041C5F6F2
:1034A0000201884200F087815AE24021C4F2020101
:1034B00088421CD0582117E040F24041C4F202017A
:1034C000884214D040F258410EE0A021C4F202011B
:1034D00088420CD0B82107E040F2B841C4F20201A2
:1034E000884204D040F2A041C4F20201884201683F
:1034F00021F00101016000E02068016811F0010F76
:1035000006D000F079FE401B0528F5D9202061E0A7
:10351000016848F23F02D4E902A6CFF610620A40E1
:10352000D4E90471D4E906C3D4E9085E42EA0A0288
:1035300032433A43BEF1040F41EA020141EA0C0171
:1035400041EA030141EA050202BFD4E90B1311432A
:1035500041EA030241F20001C5F600410968B1F1F8
:10356000005F1DD36168A1F12906292E18D8DFE874
:1035700006F015151515151517171717171717171F
:1035800017171717171717171515151517171717D3
:1035900015151717171717171515151542F480125B
:1035A0000260BEF1040F416921F0070141EA0E02F9
:1035B00031D1D4E90A6532436DB3BCF5005F10D058
:1035C000BCF1000F1AD1022E1BD0012E0FD0C6B1B4
:1035D00021E040206065032084F835000120BDE82B
:1035E000F087032E17D8DFE806F00F0C0F02A5F1C5
:1035F000C071B1FA81F14B0933B90CE0032E03D34A
:1036000009D1C5F3006333B140206065012084F81F
:103610003500BDE8F0874845426110DC6F21C4F2F7
:10362000020188421CDC3F21C4F20201884232DCE4
:103630001021C4F20201884251D028214AE04045BD
:103640001ADC40F23F41C4F2020188422ADC40F217
:103650001041C4F20201884241D040F2284139E0D1
:103660009F21C4F20201884225DC7021C4F20201CC
:10367000884234D088212DE040F29F41C4F20201FB
:1036800088421FDC40F27041C4F20201884226D019
:1036900040F288411EE04021C4F2020188421ED05F
:1036A000582117E040F24041C4F20201884216D08E
:1036B00040F258410EE0A021C4F2020188420ED02F
:1036C000B82107E040F2B841C4F20201884206D0B6
:1036D00040F2A041C4F20201884240F048816FF0FC
:1036E0000F014AF6AB2251FA80F1CAF6AA22A1FBD9
:1036F00002235F29C3F3021249F62813C0F601031F
:103700009B5C40F2FF3220EA0202E36588BF42F090
:10371000040203F01F013F23A26503FA01F1916047
:1037200040453FF76BAE9F21C4F20201884210DC96
:103730005721C4F2020188421EDC1021C4F20201AA
:1037400088421EBF2821C4F20201884233D04021A2
:103750002CE040F22741C4F20201884218DCA0218B
:10376000C4F2020188421EBFB821C4F2020188429D
:1037700021D040F2104119E05821C4F202018842E0
:103780001EBF7021C4F20201884214D088210DE0CE
:1037900040F22841C4F2020188421EBF40F240417B
:1037A000C4F20201884206D040F25841C4F202013C
:1037B000884240F0D58045F2434E40F6000C45F279
:1037C0009443C5F6020EC4F2020CC5F6020370451E
:1037D0000EDD45F26B41C5F60201884217DC45F269
:1037E0004441C5F6020188421DD045F2584116E019
:1037F00045F20841C5F6020188421EBF45F21C4150
:10380000C5F6020188420ED045F2304107E045F28C
:103810008041C5F60201884205D045F26C41C5F6EB
:103820000201884245D1C2B2A2F108014CF6CD4254
:1038300003F57B76CCF6CC42A1FB0212150903F509
:103840005B7202EB850205F01F010125BAF1800FC2
:1038500005FA01F5C4E91826A56606BF00216160D6
:103860006168CFB2013907291760756018D8791ED1
:1038700008291AD245F6001601257045C5F602063C
:1038800038DD45F26B42C5F60202904241DC45F25A
:103890004442C5F6020290424BD045F2584240E005
:1038A0000020C4E91B0060675AE0D4E91B02616F85
:1038B00053E0C2B29842B7D0A2F110014AF6AB224F
:1038C00040F20F47CAF6AA22C4F20207A1FB021275
:1038D000B8424FEA12164FF00801354688BF01EB97
:1038E000121507F1AA016246884228BF35460CF13D
:1038F0008006A6E745F20842C5F6020290421EBFC6
:1039000045F21C42C5F60202904212D045F2304206
:1039100007E045F26C42C5F60202904209D045F23A
:103920008042C5F60202904203D0C01AB0FA80F07D
:103930004509002D30460CF5A0724FF0010308BF79
:103940000CF58070002D00EB810018BF06F14002DD
:1039500003FA01F1C4E91B026167002303605160AF
:1039600000200121606584F83510BDE8F087E36D23
:1039700020F0FF02CDE6000070B5F0B390F83440BF
:10398000012C02BF0220C0B270BD012480F8344077
:1039900090F83540012C2AD1022440F26F4E80F875
:1039A00035400024C4F2020E4465D0F800C0DCF8B3
:1039B0000040F44524F00104CCF80040846D1FDC85
:1039C0009F25C4F20205AC4535DC5725C4F202053B
:1039D000AC4558DC1025C4F20205AC451EBF2825B5
:1039E000C4F20205AC4500F08F80402574E04FF42E
:1039F00000614165002180F834100120C0B270BD23
:103A000045F22F45C5F60205AC4527DC40F2B74527
:103A1000C4F20205AC4542DC40F27045C4F2020536
:103A2000AC451EBF40F28845C4F20205AC456BD0E0
:103A300040F2A04550E040F22745C4F20205AC45F3
:103A40003CDCA025C4F20205AC451EBFB825C4F27B
:103A50000205AC4558D040F210453DE045F26B45BB
:103A6000C5F60205AC453CDC45F23045C5F602051D
:103A7000AC451EBF45F24445C5F60205AC4543D0F2
:103A800045F258453BE05825C4F20205AC451EBF3F
:103A90007025C4F20205AC4536D088251CE040F202
:103AA000B845C4F20205AC451EBF45F20845C5F64F
:103AB0000205AC4528D045F21C4520E040F22845DF
:103AC000C4F20205AC451EBF40F24045C4F20205F7
:103AD000AC4519D040F25845C4F20205AC4513D0AC
:103AE00064E245F26C45C5F60205AC451EBF45F2E1
:103AF0009445C5F60205AC4506D045F28045C5F6AD
:103B00000205AC4540F05282D0E919566E60C56E90
:103B1000002D1CBFD0E91C566E60F44515DC9F25B6
:103B2000C4F20205AC452BDC5725C4F20205AC45B6
:103B30004EDC1025C4F20205AC451EBF2825C4F298
:103B40000205AC4572D040256BE045F22F45C5F625
:103B50000205AC4527DC40F2B745C4F20205AC458E
:103B600042DC40F27045C4F20205AC451EBF40F293
:103B70008845C4F20205AC4558D040F2A04550E05B
:103B800040F22745C4F20205AC453CDCA025C4F256
:103B90000205AC451EBFB825C4F20205AC4545D0B0
:103BA00040F210453DE045F26B45C5F60205AC45D7
:103BB0004ADC45F23045C5F60205AC451EBF45F26C
:103BC0004445C5F60205AC4551D045F2584549E09B
:103BD0005825C4F20205AC451EBF7025C4F202058B
:103BE000AC4523D088251CE040F2B845C4F202055C
:103BF000AC451BD045F20845C5F60205AC4536D0AC
:103C000045F21C452EE040F22845C4F20205AC45C1
:103C10001EBF40F24045C4F20205AC4506D040F25A
:103C20005845C4F20205AC4540F0C081C56D3F2641
:103C300005F01F0506FA05F5A560DCF8004024F440
:103C40008024CCF8004019E045F26C45C5F6020529
:103C5000AC451EBF45F28045C5F60205AC4506D011
:103C600045F29445C5F60205AC4540F09F81C56D0F
:103C7000012605F01F0506FA05F56560CCF804304D
:103C80008368402B0B4608BF1346CCF8083008BFAA
:103C90000A46B721C4F20201CCF80C208C4513DD92
:103CA00040F25741C4F202018C451EDC40F227412C
:103CB000C4F202018C4533DCB821C4F202018C4508
:103CC0004BD040F2104143E05721C4F202018C4531
:103CD0001ADD8721C4F202018C452ADC5821C4F286
:103CE00002018C4539D0702132E040F28741C4F2A4
:103CF00002018C4524DC40F25841C4F202018C459B
:103D00002BD040F2704123E01021C4F202018C4517
:103D10001EBF2821C4F202018C451ED0402117E0AD
:103D200040F22841C4F202018C4516D040F24041D5
:103D30000EE08821C4F202018C450ED0A02107E0DC
:103D400040F2A041C4F202018C4506D040F2884105
:103D5000C4F202018C4540F02981DCF800100B22EE
:103D600062F34401CCF80010016C29B1DCF80010BA
:103D700041F00801CCF80010F44516DC9F21C4F294
:103D800002018C452CDC5721C4F202018C454FDC2A
:103D90001021C4F202018C451EBF2821C4F2020189
:103DA0008C4500F0858040216BE045F22F41C5F63F
:103DB00002018C4527DC40F2B741C4F202018C4578
:103DC00042DC40F27041C4F202018C451EBF40F259
:103DD0008841C4F202018C456AD040F2A04150E013
:103DE00040F22741C4F202018C453CDCA021C4F220
:103DF00002018C451EBFB821C4F202018C4557D088
:103E000040F210413DE045F26B41C5F602018C45A0
:103E10003CDC45F23041C5F602018C451EBF45F23F
:103E20004441C5F602018C4542D045F258413BE081
:103E30005821C4F202018C451EBF7021C4F2020158
:103E40008C4535D088211CE040F2B841C4F2020113
:103E50008C451EBF45F20841C5F602018C4527D0AE
:103E600045F21C4120E040F22841C4F202018C4599
:103E70001EBF40F24041C4F202018C4518D040F20E
:103E80005841C4F202018C4512D086E045F26C41E3
:103E9000C5F602018C451EBF45F29441C5F60201EC
:103EA0008C4505D045F28041C5F602018C4574D1A0
:103EB000016E0A6812F4803F1EBF0A6842F48072E5
:103EC0000A60C06E00281EBF016841F48071016065
:103ED00040F20F40C4F20200844510DC6F20C4F2AF
:103EE000020084451CDC3F20C4F20200844532DC21
:103EF0001020C4F2020084454FD028204AE0F44547
:103F00001ADC40F23F40C4F2020084452ADC40F251
:103F10001040C4F2020084453FD040F2284039E00E
:103F20009F20C4F20200844525DC7020C4F2020008
:103F3000844532D088202DE040F29F40C4F2020038
:103F400084451FDC40F27040C4F20200844524D056
:103F500040F288401EE04020C4F2020084451CD09C
:103F6000582017E040F24040C4F20200844514D0CB
:103F700040F258400EE0A020C4F2020084450CD06C
:103F8000B82007E040F2B840C4F20200844504D0F3
:103F900040F2A040C4F202008445DCF8000040F08A
:103FA0000100CCF800000020C0B270BDDCF80010A9
:103FB00040F2B842C4F2020294453FF4D0AE05226A
:103FC00062F34301CCF80010016C00293FF4D4AE39
:103FD000DCF8001041F00401CCE600000000000015
:103FE00070B505466E1C00F007F9044636B144F280
:103FF0001400C2F204400078054401E04FF0FF35A0
:1040000000F0FAF8001BA842FAD370BD00000000CF
:104010002DE9F04F82B00E68002E00F0CF8042F202
:1040200000420A274FF0000A0125C5F6020290421D
:1040300000F1264202F1FF7208BF09274FEAB223BE
:10404000092B38BF4FEAB22700970027A5F10109D5
:10405000012202FA09FC16EA0C0800F0A5804E685D
:1040600006F0030BABF1010EBEF1010F14D884680A
:10407000032202FA07F324EA0303CC68BC4023437B
:104080008360C6F30013446803FA09F324EA0C04BE
:104090002343436005E000BFBBF1030F4FF0030271
:1040A00023D0C46802FA07F3BBF1020F24EA03032A
:1040B0008C6804FA07F443EA0403C36015D10AF0DC
:1040C0001C030F2606FA03FC4FF6FC76C7F6FF76B4
:1040D00006EA59040444266A26EA0C0C0E6906FA1C
:1040E00003F343EA0C0323624E6802FA07F4026802
:1040F00006F0030316F4403F03FA07F322EA040232
:1041000042EA030202604FD044F2F4420AF00C0685
:104110000F24C5F60202B44013461A6842F00202A8
:104120001A601A6840F20843C5F600039C4602F084
:1041300002020192019A29F0030252F80C30A343C3
:10414000009C04FA06F633434FF0B04642F80C30B8
:1041500032684B6822EA080213F4801F18BF42EA53
:10416000080213F4001F326040F20402C5F6000298
:104170001646326822EA080218BF42EA080213F41F
:10418000003F3260D6F8802022EA080218BF42EAD7
:10419000080213F4803FC6F88020F26F22EA08027A
:1041A00018BF42EA0802F2670E680AF1040A0237F1
:1041B00036FA05F205F101057FF448AF02B0BDE81B
:1041C000F08F0000000000000069084018BF0120C7
:1041D0007047000000000000002A08BF0904816148
:1041E000704700000000000041F20000C5F60040EA
:1041F0000068000C7047000044F2AC40C2F204407A
:10420000006870470000000044F2140044F2AC4122
:10421000C2F20440C2F2044100780A681044086007
:10422000704700000000000080B5032000F000F996
:1042300001F08AFC44F218414BF23053C5F60201FA
:10424000C0F600030A68C2F3032209689A5C01F011
:104250000F01595C02F01F02D04044F20802C2F282
:10426000044201F01F0120FA01F1116044F204013F
:10427000C2F2044108600F2000F00AF800281CBFB9
:10428000012080BD00F080F8002080BD000000000B
:10429000B0B5044644F21400C2F20440007800288D
:1042A00002BF01252846B0BD4FF47A71B1FBF0F092
:1042B00044F20401C2F204410968B1FBF0F001F0DC
:1042C000B7FF01250F2C0CD858B94FF0FF3021460D
:1042D0000022002500F078F844F21800C2F20440F1
:1042E00004602846B0BD000010B541784EF6A052DB
:1042F000CEF2000242F8081C116821F001011160A1
:10430000416842F8041CC37A017B847A90F800C0AB
:1043100090F808E01B0643EA0171437A41EAC44180
:10432000447B41EA8441847BC07B41EA444141EAC9
:10433000004040EA032040EA4E0040EA0C001060D2
:1043400010BD0000000000004EF62450BFF35F8F48
:10435000CEF20000016821F4803101600021016784
:1043600070470000000000004EF6245140F00100AC
:10437000CEF200010867086840F480300860BFF39F
:104380004F8FBFF36F8F704781B044F2F440C5F692
:104390000200016841F002010160006800F00200C3
:1043A0000090009801B070470028B8BF704700F037
:1043B0001F010122400902FA01F14EF20012CEF271
:1043C000000242F82010704710B500F00F034EF6BF
:1043D0000C5E00F1604CB0F1FF3FA3F10403CEF29C
:1043E000000E734403F10C04C8BF0CF56444DEF8FE
:1043F0000000C0F3022000F1040CC31E80F007008F
:10440000BCF1070F4FF0010C38BF0023042828BF70
:1044100004200CFA00F0013808400CFA03F10F31C7
:104420009840114008430001207010BD00000000BA
:104430004EF60C514FF6FF03CEF200010A681A4007
:1044400060F30A2242F0806040F0FD70086070471F
:10445000B0B544F60C05C5F602052A68296812F0C5
:10446000040F05D101F00701081A18BF0120B0BDE3
:1044700021F0070108432860FFF7BEFE044600BF95
:1044800055F8080C10F4005F1CBF0020B0BDFFF70A
:10449000B3FE001BB0F57A7F84BF0120B0BDEFE70B
:1044A00080B501F0C9FA44F220414BF23052C5F612
:1044B0000201C0F600020968C1F30211515C01F06B
:1044C0001F01C84080BD000080B544F2304CC5F6E5
:1044D000020C5CF808EC5CF8082C5CF8041CDCF8B6
:1044E000043001F00101C2F305124942002A01EA39
:1044F000D3016FF35F3100EE101AB8EE400A22D0FC
:104500000EF00303022B23D0012B26D053BB02EE67
:10451000102A9FED491AB8EE422A5CF8301C20EEB2
:10452000010A11F0200F69D1DCF800109FED441A48
:104530006FF35F2181EE022A03EE101AB8EE433AC0
:1045400030EE031A22E00021C0E90011816080BD35
:10455000DCF800109FED372A08E0DCF800109FED32
:10456000372A03E0DCF800109FED352A01EE102A0F
:104570006FF35F219FED303AB8EE414A01EE101A19
:10458000B8EE411A82EE042A00EE031ADCF800109D
:10459000B7EE000A31EE001A22EE011AC1F34621ED
:1045A00003EE101AB8EE433A33EE002A81EE022AE7
:1045B000BCEEC22A80ED002ADCF80010C1F30641EF
:1045C00002EE101AB8EE422A32EE002A81EE022ADA
:1045D000BCEEC22A80ED012ADCF80010C1F30661AE
:1045E00002EE101AB8EE422A32EE000A81EE000AFC
:1045F000BCEEC00A10EE101A816080BD5CF8301C61
:1046000049F20002C0F2D032C1F3C10122FA01F135
:10461000DCF8002003EE101A6FF35F2201EE102A7F
:10462000B8EE411AB8EE433A30EE011A83EE022A90
:10463000ACE700BF20BCBE4B000000390024744A28
:104640000024744C0000000080B544F2384CC5F6DC
:10465000020C5CF810EC5CF8102C5CF80C1CDCF81C
:104660000430C1F30011C2F305324942002A01EAC5
:10467000D3016FF35F3100EE101AB8EE400A22D07A
:104680000EF00303022B28D0012B21D003BB02EE36
:10469000102A9FED461AB8EE422A5CF8381C20EE2C
:1046A000010A11F0200F64D1DCF800109FED411ACF
:1046B0006FF35F2181EE022A03EE101AB8EE433A3F
:1046C00030EE031A1DE00021C0E90011816080BDB9
:1046D000DCF800109FED362A03E0DCF800109FEDB7
:1046E000322A01EE102A6FF35F219FED303AB8EEC7
:1046F000414A01EE101AB8EE411A82EE042A00EE89
:10470000031ADCF80010B7EE000A31EE001A22EEB0
:10471000011AC1F3462103EE101AB8EE433A33EE04
:10472000002A81EE022ABCEEC22A80ED002ADCF8C3
:104730000010C1F3064102EE101AB8EE422A32EE22
:10474000002A81EE022ABCEEC22A80ED012ADCF8A2
:104750000010C1F3066102EE101AB8EE422A32EEE2
:10476000000A81EE000ABCEEC00A10EE101A816049
:1047700080BD5CF8381C49F20002C0F2D032C1F3AF
:10478000C10122FA01F1DCF8002003EE101A6FF3E8
:104790005F2201EE102AB8EE411AB8EE433A30EE2D
:1047A000011A83EE022AACE720BCBE4B00000039A0
:1047B0000024744A0024744C80B544F2404CC5F681
:1047C000020C5CF818EC5CF8182C5CF8141CDCF893
:1047D0000430C1F30021C2F305524942002A01EA24
:1047E000D3016FF35F3100EE101AB8EE400A22D009
:1047F0000EF00303022B28D0012B21D003BB02EEC5
:10480000102A9FED461AB8EE422A5CF8401C20EEB2
:10481000010A11F0200F64D1DCF800109FED411A5D
:104820006FF35F2181EE022A03EE101AB8EE433ACD
:1048300030EE031A1DE00021C0E90011816080BD47
:10484000DCF800109FED362A03E0DCF800109FED45
:10485000322A01EE102A6FF35F219FED303AB8EE55
:10486000414A01EE101AB8EE411A82EE042A00EE17
:10487000031ADCF80010B7EE000A31EE001A22EE3F
:10488000011AC1F3462103EE101AB8EE433A33EE93
:10489000002A81EE022ABCEEC22A80ED002ADCF852
:1048A0000010C1F3064102EE101AB8EE422A32EEB1
:1048B000002A81EE022ABCEEC22A80ED012ADCF831
:1048C0000010C1F3066102EE101AB8EE422A32EE71
:1048D000000A81EE000ABCEEC00A10EE101A8160D8
:1048E00080BD5CF8401C49F20002C0F2D032C1F336
:1048F000C10122FA01F1DCF8002003EE101A6FF377
:104900005F2201EE102AB8EE411AB8EE433A30EEBB
:10491000011A83EE022AACE720BCBE4B000000392E
:104920000024744A0024744C70B58AB0024641F6E3
:10493000FF7540F6001E47F6400C49F2000344F2B2
:1049400000440020AD1AC0F23D0EC0F27D1CC0F242
:10495000D033C5F6020470EB01052EDB40F2FF36C2
:1049600048F20005B61AC0F2BB0570EB01064DDA3D
:1049700082F480660E4300F0908082F400660E435D
:1049800000F0A18082F48052114340F02181206D1B
:10499000C0F30231042900F2ED8100EB81022846C8
:1049A000DFE811F0050039013F01160145012068DB
:1049B00010F0007F00F0DE8127E147F6FF75AD1AA9
:1049C00070EB010542DA82F400450D4300F091805E
:1049D00082F480350D4300F09B8082F40022114365
:1049E00040F0F680A06D00F44030B0F5003F00F0DC
:1049F000DC80B0F5803F00F0ED80002840F0BA8107
:104A0000206810F0006F40F07E81B3E182F4807680
:104A10000E4300F0868082F40072114340F0D8808B
:104A2000206DC0F38211042900F2A48100EB810201
:104A30002846DFE811F005000E011401CD001A012F
:104A4000206810F0007F00F09581DEE082F40055D0
:104A50000D4300F07C8082F48042114340F0B88026
:104A6000A06DC0F30270052800F28481DFE810F029
:104A700006006A016F0190009700810000F0DCFFE2
:104A8000216A4BF23052C0F60002C1F30211515CB0
:104A900001F01F01C8400AB070BDA06DC0F34251C3
:104AA000042900F2678100EB81022846DFE811F05B
:104AB0000500EF00F4009000F900206810F0007F7E
:104AC00000F05881A1E0A06DC0F30261042900F25A
:104AD000518100EB81022846DFE811F00500F50066
:104AE000FA007A00FF00206810F0007F00F0428199
:104AF0008BE0206D00F04050B0F1005F00F0758059
:104B0000B0F1805F00F07C80002840F0338130E01D
:104B1000E16C206811F4803F31D1800140F12A819D
:104B200073E0206D00F00701042900F2238100EBFF
:104B300081022846DFE811F00500E300ED004C009B
:104B4000F700206810F0007F00F014815DE0206D18
:104B5000C0F30240052800F20D81DFE810F00600E6
:104B6000FD000701190020000A0000F08DFF0AB0C7
:104B700070BD206880030CEAE0700AB070BD0001CF
:104B800040F1F88004A8FFF75FFD06980AB070BDF9
:104B9000206810F0040F00F0ED802068CCE0206861
:104BA000C0050EEAE0700AB070BDE16C22682068B2
:104BB00011F0405103D112F0040240F0BD80B1F178
:104BC000805F40F0E88010F48070704600F0E38071
:104BD0000AB070BD206810F0005F00F0CB8001A823
:104BE000FFF7EAFD03980AB070BD206810F0006F6F
:104BF00000F0C08004A8FFF727FD05980AB070BD3B
:104C0000206810F0007F00F0B58007A8FFF75CFC7B
:104C100008980AB070BD206810F0006F00F0AA80FC
:104C200071E0206810F0005F00F0A48075E0E16C96
:104C30002268206811F0405102D112F004027BD1A9
:104C4000B1F1805F40F0A78010F480707046BFD152
:104C5000A1E0206810F0006F00F08C8053E0206825
:104C600010F0005F00F0868057E0E16C2268206859
:104C700011F0405102D112F004025DD1B1F1805F18
:104C800040F0898010F480707046A1D183E02068E4
:104C900010F0006F6ED036E0206810F0005F69D031
:104CA0003BE0E16C2268206811F0405102D112F023
:104CB000040241D1B1F1805F6DD110F48070704673
:104CC0007FF486AF67E0206810F0006F52D01AE0E2
:104CD000206810F0005F4DD01FE0E16C2268206872
:104CE00011F0405102D112F0040225D1B1F1805FE0
:104CF00051D110F4807070467FF46AAF4BE02068A9
:104D000010F0006F36D004A8FFF79EFC04980AB09C
:104D100070BD206810F0005F2CD001A8FFF74CFD9B
:104D200001980AB070BDE16C2268206811F0405112
:104D300029D112F0040226D0C0F3C10023FA00F0FA
:104D40000AB070BD206810F0006F13D008E0206832
:104D500010F0005F0ED010E0206810F0006F09D056
:104D600004A8FFF771FC05980AB070BD206810F028
:104D7000005F02D100200AB070BD01A8FFF71CFD42
:104D800002980AB070BDB1F1805F04D110F4807058
:104D900070467FF41DAF206810F4003018BF6046E5
:104DA000B1F1005F18BF00200AB070BD0000000024
:104DB0002DE9F047044644F22C48E078C5F6020895
:104DC000000726D5A06E4FEA305103290AD8DFE844
:104DD00001F0020B1119D8F8001041F40031C8F8A5
:104DE00000100FE0012615E004F10800022103F095
:104DF000EFFB04E004F12800022103F07DFC0646ED
:104E000046B9A06ED8F8241021F440110843C8F820
:104E1000240000266078C00701D135462BE0A06D44
:104E200004280DD83546DFE800F0030E141A1A00E6
:104E3000D8F80000354640F40030C8F800000EE015
:104E40000125012718E004F10800002103F0C0FB50
:104E500004E004F12800002103F04EFC0546002D7B
:104E60002F4609D1D8F82400A16D002520F00700B5
:104E70000843C8F824003746607880072BD5E06DDA
:104E80004FEAB01004280BD8DFE800F0030D131927
:104E90001900D8F8000040F40030C8F800000EE017
:104EA0000125012618E004F10800002103F090FB21
:104EB00004E004F12800002103F01EFC0546002D4B
:104EC0002E4609D1D8F82400E16D002520F4E070C9
:104ED0000843C8F824003E46607840072ED5D4F831
:104EE000A8004FEA705004280BD8DFE800F0030E4A
:104EF000141A1A00D8F8000040F40030C8F8000076
:104F00000FE001254FF0010919E004F1080000212C
:104F100003F05EFB04E004F12800002103F0ECFB49
:104F20000546002DA9460AD1D8F82C00D4F8A810BF
:104F3000002520F460000843C8F82C00B1466078D2
:104F400000072DD5D4F8AC004FEA306004280BD808
:104F5000DFE800F0030D13191900D8F8000040F441
:104F60000030C8F800000EE00125012719E004F127
:104F70000800002103F02CFB04E004F128000021CC
:104F800003F0BAFB0546002D2F460AD1D8F82C00B5
:104F9000D4F8AC10002520F0E0600843C8F82C00DD
:104FA0004F46E078800724D5E06C4FEA30100328A4
:104FB0000AD8DFE800F012020C12D8F8000040F422
:104FC0000030C8F8000008E00125012612E004F1D5
:104FD0000800022103F0FCFA0546002D2E4609D1F7
:104FE000D8F82000E16C002520F030000843C8F814
:104FF00020003E466078C0062BD5206E4FEA303048
:1050000004280BD8DFE800F0030D13191900D8F8B5
:10501000000040F40030C8F800000EE00125012730
:1050200018E004F10800002103F0D2FA04E004F1D2
:105030002800002103F060FB0546002D2F4609D112
:10504000D8F82400216E002520F4E0400843C8F879
:10505000240037466078800624D5606E4FEA3040E1
:1050600005280AD8DFE800F012030C12121204F12E
:105070000800012103F0ACFA07E00125012612E047
:1050800004F12800012103F037FB0546002D2E46D0
:1050900009D1D8F82400616E002520F4E0200843EF
:1050A000C8F824003E466078400626D5D4F8B00003
:1050B0004FEA307005280AD8DFE800F012030C121E
:1050C000121204F10800012103F082FA07E0012521
:1050D000012713E004F12800012103F00DFB054630
:1050E000002D2F460AD1D8F82C00D4F8B010002596
:1050F00020F0E0400843C8F82C00374660780006EE
:1051000020D5206F90B1B0F1005F09D0B0F1805F81
:105110002AD1D8F8000040F40030C8F8000005E0BB
:1051200004F10800012103F053FA0546002D2E4634
:1051300009D1D8F82400216F002520F04050084301
:10514000C8F824003E46E078C00726D0A06C0328AB
:105150000DD8DFE800F016021016D8F8000040F471
:105160000030C8F800000CE001250126EBE701251E
:105170004FF0010912E004F10800022103F028FABF
:105180000546002DA94609D1D8F82000A16C0025BC
:1051900020F003000843C8F82000B146A07840067C
:1051A00001D44F4618E0D8F8D40340F48070C8F812
:1051B000D403FFF721F80646D8F8D40310F4807F13
:1051C00007D1FFF719F8801B6428F5D903250327B9
:1051D00002E0002D2F4612D02078C00755D0E06F96
:1051E0004FEAF00005283BD8DFE800F043033D43D9
:1051F000434304F10800012103F0EAF938E0D8F84C
:105200004410D4F8B400414011F4407F11D0D8F8D4
:105210004410D8F8442042F4803221F44071C8F898
:105220004420D8F8442022F48032C8F84420C8F83A
:105230004410B0F5807F40F08C82FEF7DDFF06461B
:1052400041F2883A03250327D8F8440010F0020FF2
:1052500040F07D82FEF7D0FF801B5045F4D9BBE7BC
:105260000125012612E004F12800012103F044FA8F
:105270000546002D2E4609D1D8F82800E16F0025FB
:1052800020F038000843C8F828003E462078800700
:1052900022D5A06F05280AD8DFE800F012030C120F
:1052A000121204F10800012103F092F907E0012530
:1052B000012712E004F12800012103F01DFA054640
:1052C000002D2F4609D1D8F82800A16F002520F025
:1052D00007000843C8F8280037462078400724D53F
:1052E000D4F8940005280AD8DFE800F012030C1265
:1052F000121204F10800012103F06AF907E0012508
:10530000012613E004F12800012103F0F5F9054618
:10531000002D2E460AD1D8F82C00D4F89410002580
:1053200020F007000843C8F82C003E46207880068D
:1053300026D5D4F890004FEA307005280AD8DFE867
:1053400000F012030C12121204F10800002103F005
:105350003FF907E00125012713E004F128000221AD
:1053600003F0CAF90546002D2F460AD1D8F82800C7
:10537000D4F89010002520F0E0400843C8F8280039
:1053800037462078400626D5D4F89C004FEAB02056
:1053900005280AD8DFE800F012030C12121204F1FB
:1053A0000800002103F014F907E00125012613E0AD
:1053B00004F12800022103F09FF90546002D2E4636
:1053C0000AD1D8F82C00D4F89C10002520F4E05025
:1053D0000843C8F82C003E462078000626D5D4F8AD
:1053E000A0004FEA703005280AD8DFE800F0120369
:1053F0000C12121204F10800002103F0E9F807E092
:105400000125012713E004F12800022103F074F9BB
:105410000546002D2F460AD1D8F82C00D4F8A0104C
:10542000002520F460400843C8F82C003746206867
:1054300010F0080F16D0D4F88410B1F5805F0AD1AF
:1054400004F12800022103F057F9002818BF0127B2
:105450002068D4F88410D8F8282022F44052114350
:10546000C8F82810C10616D5D4F89810B1F5807F79
:105470000AD104F12800022103F03EF9002818BFE8
:1054800001272068D4F89810D8F82C2022F4407214
:105490001143C8F82C10000321D5D4F8A400B0F5AE
:1054A000003F0FD0B0F5803F06D078BB04F1080074
:1054B000002103F08DF804E004F12800022103F03C
:1054C0001BF90546002D2E460AD1D8F82C00D4F839
:1054D000A410002520F440300843C8F82C003E46B4
:1054E000A078400728D5D4F88800B0F5401F16D022
:1054F000B0F5001F0DD0B0F5801F40F02081D8F826
:10550000000040F40030C8F8000008E00125012642
:10551000E6E704F12800012103F0EEF80546002D2E
:105520002F460AD1D8F82800D4F88810002520F496
:1055300040100843C8F828003746A078C00701D1BA
:105540003E4620E0206DB0F5803F07D0C8B9D8F8BE
:10555000000040F40030C8F8000005E004F1080045
:10556000022103F035F80546002D2E460BD1D8F860
:105570002000216D002520F480300843C8F8200069
:10558000DEE701250126216811F0005F03D1606884
:105590008A030CD450E004F12800022103F0ACF897
:1055A000002818BF0126D4E900108A0344D5D4F896
:1055B00080206FF0010303EB3223022B0BD34FEA61
:1055C000322343B1012B40F0BD80D8F8003043F4C2
:1055D0000033C8F8003045B3CA0230D4CA0038D40A
:1055E0008A0241D44A0049D4B1F1FF3F56DD090295
:1055F0005ED4C10767D1810770D441077AD401070F
:1056000000F18480C10600F18D80800607D504F189
:105610002800022103F070F8002818BF0546002D6D
:1056200018BF01252846BDE8F087D8F8283023F4B4
:1056300040731A43C8F828203546CA02CED5D8F898
:105640002420636F22F000421A43C8F82420CA00C5
:10565000C6D558F81C2CD4F8B83022F480421A432E
:1056600048F81C2C8A02BDD5D8F82420E36E22F01D
:1056700080721A43C8F824204A00B5D558F81C2C6B
:1056800022F4004248F81C2CD4F8BC2058F81C3CEA
:105690001A4348F81C2CB1F1FF3FA8DCD8F82020B1
:1056A000636D22F040521A43C8F820200902A0D5A9
:1056B000D8F82810D4F88C2021F440011143C8F800
:1056C0002810C10797D004F10800002102F080FFE4
:1056D000002818BF0546606881078ED504F10800D0
:1056E000012102F075FF002818BF054660684107D8
:1056F0007FF585AF04F10800022102F069FF002860
:1057000018BF0546606801077FF57CAF04F12800EB
:10571000002102F0F1FF002818BF05466068C106AD
:105720007FF573AF04F12800012102F0E5FF0028A6
:1057300018BF0546606880067FF571AF67E70125F1
:105740000127FAE60125CA027FF548AF77E7D4F8CA
:10575000B40058F81C1C00F440720025B2F5407FDC
:1057600021F47C5101BF4FF6CF72C0F2FF0202EA72
:10577000101211436FF31F3048F81C1CD8F8441066
:105780000843C8F844000CE52DE9F04381B0044615
:105790008946002C00F0908042F20008C5F20028F3
:1057A000D8F8000000F00F0048450ED2D8F80000ED
:1057B00020F00F0040EA0900C8F80000D8F8000007
:1057C00000F00F00484540F0D180206844F21847AF
:1057D000C5F6020710F0040F70D101077CD4C10692
:1057E00000F18880810600F19380810700F19E809E
:1057F000C10740F0A98081070AD5E1683A6802F044
:105800000F0291423FBF3A6822F00F021143396004
:10581000D8F8001001F00F0149450ED9D8F8001052
:1058200021F00F0141EA0901C8F80010D8F8001072
:1058300001F00F01494540F0D580410700F1988003
:10584000010700F1A380C10600F1AE8080060AD5F1
:10585000E069B96801F0700188423FBFB96821F082
:1058600070010843B86000F06FF939684BF23052AC
:10587000C0F60002C1F30321515C01F01F01C840D2
:10588000396801F00F01515C44F20802C2F204428F
:1058900001F01F0120FA01F1116044F20401C2F28B
:1058A0000441086044F21800C2F20440006801B0EC
:1058B000BDE8F043FEF7ECBC0120B3E021693A6893
:1058C00002F07002914281BF3A6822F070021143E7
:1058D000396001077FF583AF61697A6802F0700271
:1058E000914281BF7A6822F0700211437960C1064B
:1058F0007FF578AFA1697A6802F4E062914281BFD6
:105900007A6822F4E0621143796081067FF56DAF19
:10591000E169BA6802F07002914281BFBA6822F070
:1059200070021143B96081077FF562AFE1683A68A0
:1059300002F00F02914281BF3A6822F00F02114338
:105940003960C1073FF457AF3868A16820F4706030
:10595000084338606068032835D002283AD157F8E8
:10596000181C11F4003F43D101205BE0012059E0F5
:1059700021693A6802F0700291423FBF3A6822F012
:1059800070021143396001077FF55DAF61697A6884
:1059900002F0700291423FBF7A6822F07002114318
:1059A0007960C1067FF552AFA1697A6802F4E062BE
:1059B00091423FBF7A6822F4E06211437960800629
:1059C0007FF551AF44E757F8181C11F0007F0FD155
:1059D000012027E057F8181C012805D1C90507D474
:1059E00001201FE001201DE0490701D4012019E03A
:1059F00057F8081C21F00701084347F8080CFEF788
:105A0000FBFB064641F2883557F8080C616800F048
:105A10003800B0EBC10F09D0FEF7EEFB801BA842A7
:105A2000F2D90320C0B201B0BDE8F083206881073D
:105A30003FF5E3AEECE6000080B500F085F844F2F7
:105A400018414BF23053C5F60201C0F600030A6854
:105A5000C2F303229A5C02F01F0220FA02F20868E5
:105A600044F20801C2F2044100F00F00185C00F09B
:105A70001F0022FA00F0086044F20401C2F204415F
:105A80000A6080BD0000000080B500F05DF844F2BF
:105A9000184C4BF2305344F20801C5F6020CC0F624
:105AA0000003C2F20441DCF80020C2F303229A5C36
:105AB00002F01F02D040DCF8002002F00F029A5CD6
:105AC00002F01F0220FA02F20A6044F20401C2F25C
:105AD00004410860DCF80400C0F30210185C00F018
